:020000040800F2
:10000000A8040020010100087F110008170E000855
:100010007D11000849010008651200080000000079
:10002000000000000000000000000000A311000814
:100030004B01000800000000A1110008A5110008F4
:100040001B0100081B0100081B0100081B01000820
:100050001B0100081B0100081B0100081B01000810
:100060001B0100081B0100081B0100081B01000800
:100070001B0100081B0100081B0100081B010008F0
:100080001B0100081B0100081B0100081B010008E0
:100090001B0100081B0100081B0100081B010008D0
:1000A0001B0100081B0100081B0100081B010008C0
:1000B0001B0100081B0100081B0100081B010008B0
:1000C0001B0100081B0100081B0100081B010008A0
:1000D0001B0100081B0100081B0100081B01000890
:1000E0001B0100081B0100081B010008DFF80CD0F1
:1000F00000F018F80048004785120008A804002006
:100100000648804706480047FEE7FEE7FEE7FEE7B1
:10011000FEE7FEE7FEE7FEE7FEE7FEE71D1200084A
:10012000ED000008064C074D06E0E06840F00103D2
:1001300094E8070098471034AC42F6D3FFF7DAFF93
:10014000DC120008FC120008FEE770472DE9F041C0
:1001500004004FF0000504D094F83C00002618B1CC
:1001600007E00120BDE8F08184F83D60204600F002
:1001700083F8022084F83C002068016821F0020125
:1001800001602068016841F00101016000F096F90A
:1001900007464FF0030804E000F090F9C01B0A285E
:1001A00053D820684068C007F6D021684868C00767
:1001B00058D0A069012801D145F08005E0690128E7
:1001C0002FD025F04000226A012A2DD020F02000F7
:1001D000626A012A2BD020F01000A26A012A29D0DD
:1001E00020F00800E26A012A27D020F004000A6803
:1001F00022F0FC0202430A60D4E902010843D4E978
:100200000412114308436168491E08432168C8610C
:100210002068016821F00101016000F04FF90546F6
:1002200018E045F04000CEE740F02000D0E740F075
:100230001000D2E740F00800D4E740F00400D6E711
:1002400000F03CF9401B0A2804D904F83C8F032035
:10025000667087E720684068C007F1D12068406871
:10026000C00703D0042084F83C007AE7266401200C
:1002700084F83C00002075E710B50068114986B08D
:1002800088421DD11048C16941F00071C161C06947
:100290000E4C00F0007004904FF4006000900020BD
:1002A000019002906946204600F024F8A0140090C6
:1002B00002200190032003906946204600F01AF8BE
:1002C00006B010BD0064004000100240000801406C
:1002D00070B5044600F0F2F80546601C02D00448F0
:1002E0000078044400F0EAF8401BA042FAD370BD45
:1002F000040000202DE9F84FDFF890A100220AF158
:10030000040B144601274FF00F090BF1040E00BF38
:100310000B6807FA04F52B40AB4274D1DFF870C1CB
:100320004E68A6EB0C0866452BD00DDC032E34D0AE
:1003300005DC36B3012E19D0022E2FD11BE0112E71
:1003400016D0122E2AD119E0B8F5881F19D006DC74
:10035000B8F5803F15D0B8F5801F1FD111E0B8F572
:10036000001F0ED0B8F5041F18D10AE0CA6815E0C6
:10037000CA68121D12E0CA6808320FE0CA680C325F
:100380000CE08A682AB1012A4FF0080203D04561C7
:1003900004E0042202E0056100E00022FF2B01D806
:1003A000064601E000F104064FEA840501D9A5F1F3
:1003B0002005D6F800C009FA05F82CEA080C02FA64
:1003C00005F54CEA050CC6F800C04D68ED0057D5A0
:1003D000304DAE6946F00106AE61AD6924F003060A
:1003E00005F0010500952C4D06EB050CDCF80850D6
:1003F000A6074FEA167809FA08F6B543274EB04229
:1004000002D1002610E03BE0254EB04201D101268A
:100410000AE0244EB04201D1022605E0224EB0424D
:1004200001D1032600E0042606FA08F62E43CCF894
:1004300008604D68DAF80060ED03554601D51E43AB
:1004400000E09E432E604D68DBF80060AD035D4622
:1004500001D51E4300E09E432E604D68DEF800602B
:10046000ED02754601D51E4300E09E432E604D68A7
:10047000AD020E4D2E6801D51E4300E09E432E6056
:10048000641C102CFFF444AFBDE8F88F0004014059
:10049000000011100010024000000140000801405F
:1004A000000C014000100140001401400C04014008
:1004B0000AB1016170470904FBE700000148806848
:1004C000704700000400002070B504001BD094F8B1
:1004D0003D00002520B984F83C50204600F030F95A
:1004E000242084F83D002068016821F001010160AA
:1004F00000F0A4FA404A6168914201D83F4900E007
:100500003F49884201D2012070BD3E492368B0FBBB
:10051000F1F159606368934206D94FF496735943D9
:100520004FF47A73B1FBF3F12368491C19626168D7
:10053000914210D84900401EB0FBF1F2521CC2F3A8
:100540000B02042A01D2042022E0B0FBF1F0401C8F
:10055000C0F30B001CE0A368CBB301EBC10202EBBC
:100560000116421EB2FBF6F2521C42F48042120502
:1005700036D06BB301EBC10202EB0111401EB0FBA0
:10058000F1F0401CC0F30B0040F4804040F4004008
:100590002168C861D4E90701084321680860D4E9EB
:1005A0000310084321688860D4E9050108432168E5
:1005B000C8602068016841F00101016025642020C5
:1005C00084F83D00256384F83E50002070BD00E0B3
:1005D00008E001EB4106421EB2FBF6F2521CC6E7F0
:1005E0000120D5E701EB4101401EB0FBF1F0401CBA
:1005F000C0F30B00CAE70000A086010080841E0043
:1006000000093D0040420F002DE9F84F1F4690467B
:100610008A460446DDF82890FFF750FF064694F816
:100620003D0020287ED1192301224349204600960F
:1006300000F077FC00287DD194F83C00012879D0A7
:10064000012084F83C0020680168C90703D10168D3
:1006500041F0010101602068016821F4006101603E
:10066000212084F83D00102084F83E0000252564F8
:10067000C4F8248067853148E062608D2085334668
:100680004A465146204600F0DBFB28B1206C84F836
:100690003C5004284CD00DE02068416980690090EE
:1006A00030E032464946204600F0B0FC28B1206CCC
:1006B000042838D00320BDE8F88F606A411C6162CD
:1006C000216800780861608D401E6085208D401E85
:1006D00080B2208521684A69D24352070BD450B1B9
:1006E000606A421C626200780861608D401E60850D
:1006F000208D401E208532464946204600F0EAFB08
:100700000028D4D1208D0028CBD154F83D0B0168AE
:1007100041F400710160202004F81E09E577657737
:100720000020C8E706E02068016841F4007101601C
:100730000120C0E70220BEE7020010000000FFFF1A
:1007400000B500680C4985B0884212D1C0200090E5
:10075000122001900320039069460848FFF7CAFD64
:100760000748C16941F40011C161C06900F400107B
:10077000049005B000BD000000540040000C014092
:10078000001002400248816802781144816070477D
:1007900004000020074810B5016841F01001016015
:1007A000032000F089F8002000F006F800F024F89B
:1007B000002010BD0020024070B50D4D04464FF4DE
:1007C0007A712878B1FBF0F00A490968B1FBF0F0C2
:1007D00000F009FB48B9102C07D200222146501E18
:1007E00000F04AF800206C6070BD012070BD000070
:1007F00004000020000000201D4808B5816941F078
:1008000001018161806900F001000090032000F087
:1008100053F8002211466FF00B0000F02DF8002273
:1008200011466FF00A0000F027F8002211466FF021
:10083000090000F021F800221146501F00F01CF8BA
:1008400000221146101F00F017F800221146901EDA
:1008500000F012F800221146501E00F00DF8054875
:10086000416821F0E06141F00071416008BD000085
:100870000010024000000140F0B40E4B1B680C4613
:10088000C3F30223C3F10705042D00D90425191D64
:10089000072901D2002300E0DB1E012606FA05F13C
:1008A000491E214099409E40761E16403143F0BCBF
:1008B00000F066BC0CED00E0064900F00702086895
:1008C0004FF6FF03184040EA0220034A1043086035
:1008D000704700000CED00E00000FA052DE9F0473C
:1008E000DFF83C8105460E46D8F8000000F007000E
:1008F000B0420CD2D8F8001021F007013143C8F8FB
:100900000010D8F8000000F00700B04263D128784A
:10091000444C800705D56068A96820F0F0000843C2
:1009200060602878C00745D06868012816D0216823
:10093000022816D0890700294DDA616821F00301E9
:1009400001436160FFF7BAFD6968074641F28830EC
:1009500001290FD00229814619D027E02168890397
:10096000E9E78901E7E700BFFFF7A8FDC11B49459B
:1009700001D918E081466068C0F381000128F3D1F5
:1009800018E000BFFFF79AFDC11B49450BD860680E
:10099000C0F381000228F5D10CE000BFFFF78EFD07
:1009A000C11B494502D90320BDE8F087606810F0FB
:1009B0000C0FF3D1D8F80010404601F00701B14206
:1009C0000BD9016821F0070131430160006800F094
:1009D0000700B04201D00120E6E72878400705D59E
:1009E0006068E96820F4E0600843606028780007E8
:1009F00006D56068296920F4605040EAC100606053
:100A000000F02CF86168084AC1F30311515CC8403A
:100A1000064908600020FFF7CFFE0020C4E7000071
:100A20000020024000100240C41200080000002014
:100A30000148006870470000000000200448054994
:100A400000684968044AC1F30221515CC8407047FC
:100A50000000002000100240D412000812A185B04E
:100A60000FC98DE80F0014A0144A00680490516863
:100A7000134801F00C03042B10D0082B0ED1C1F346
:100A80008343C9031DF803000AD5516804AAC1F3C2
:100A90004041515C0A4A5043B0FBF1F005B0704749
:100AA00008494843FAE7000002030405060708095D
:100AB0000A0B0C0D0E0F1010010200000010024076
:100AC00000127A0000093D002DE9F84F0446007835
:100AD000B94DC00748D06868C0F38100012807D02D
:100AE0006868C0F38100022809D16868C00306D590
:100AF0002868800338D5606800286FD034E06068CB
:100B0000B0F5803F0BD010B1B0F5A02F11D0286800
:100B100020F480302860286820F4802002E02868D3
:100B200040F480302860606888B1FFF7C7FC064653
:100B300009E0286840F480202860F0E7FFF7BEFC59
:100B4000801B642875D828688003F7D50CE0FFF770
:100B5000B5FC064605E000BFFFF7B0FC801B64282B
:100B6000F0D828688003F7D42078944E80074FF09F
:100B700001094FF000083BD5686810F00C0F07D052
:100B80006868C0F38100022809D16868C00306D4F0
:100B90002868800714D5206901281FD110E020693A
:100BA000B0B1C6F80090FFF789FC074605E000BF2A
:100BB000FFF784FCC01B0228C4D828688007F7D53B
:100BC0002868616920F0F80040EAC10028600FE061
:100BD000C6F80080FFF772FC074606E0E9E000BFB8
:100BE000FFF76CFCC01B022823D828688007F7D4C5
:100BF000207800072CD57248A169D9B1C0F80090BF
:100C0000FFF75CFC074604E0FFF758FCC01B022816
:100C10000FD8686A8007F7D56A484FF4FA51006820
:100C2000B0FBF1F0009000BF0098411E0091FAD295
:100C30000EE080E0C0F80080FFF740FC074604E0CB
:100C4000FFF73CFCC01B022875D8686A8007F7D400
:100C50002078400760D5E8690027C00008D4E8691B
:100C600040F08050E861E869012700F08050009072
:100C700055480168C90513D40168834641F4807161
:100C80000160FFF71BFC824606E000BFFFF716FC81
:100C9000A0EB0A0064284ED8DBF80000C005F5D5AB
:100CA000E06801280AD008B1052813D0286A20F08E
:100CB00001002862286A20F0040002E0286A40F05F
:100CC00001002862E06841F2883B98B1FFF7F6FB2B
:100CD00082460BE0286A40F004002862EEE700BF7D
:100CE000FFF7ECFBA0EB0A0159455AD8286A8007A8
:100CF000F6D50CE0FFF7E2FB824605E0FFF7DEFBEE
:100D0000A0EB0A0159454CD8286A8007F6D41FB1D8
:100D1000E86920F08050E861E06988B36968C1F350
:100D20008101022945D00228C6F8608004D0FFF76F
:100D3000C5FB044638E034E0FFF7C0FB074604E09B
:100D4000FFF7BCFBC01B02282BD828688001F7D412
:100D5000206AB0F5803F05D16868A16820F40030B2
:100D600008436860D4E908010843696821F47411F4
:100D700008436860C6F86090FFF7A0FB044606E0F1
:100D800015E000BFFFF79AFB001B022809D828686E
:100D90008001F7D50BE000BFFFF790FB001B022896
:100DA00002D90320BDE8F88F28688001F4D4002020
:100DB000F8E70120F6E70000001002400000424280
:100DC0008004424200000020007000404FF0E0210B
:100DD0000428086903D020F004000861704740F03F
:100DE0000400FAE7704710B5401EB0F1807F01D3D0
:100DF000012010BD4FF0E02460610F21601700F06A
:100E0000BFF90020A06107202061002010BD10B5AF
:100E1000FFF7E8FF10BDFEE701684A69D2435205BB
:100E20000CD46FF480624A6104210164002140F80F
:100E3000301F202242730173012070470020704749
:100E4000F8B50446C06A1E460D461746042807D06A
:100E5000012805D010F5803F02D0206B122804D164
:100E60002068016841F480710160134600224FF050
:100E700001112046009600F054F8A0B92069B0F5A1
:100E8000804F12D00620216800EAD51040F0F00013
:100E9000086133463A460E49204600F073F838B1EF
:100EA000206C042811D00320F8BD05F0FE0000E0FE
:100EB000E8B221680861064933463A46891F204650
:100EC00000F060F80028EBD1F8BD0120F8BD00006B
:100ED0000800010070B516460D4604461AE020468B
:100EE000FFF79AFF08B1012070BD681C12D025B130
:100EF000FFF7E4FA801BA8420CD954F8400F40F0E9
:100F0000200044F810090020206020216173207324
:100F1000032070BD20684069C0434007DFD4002033
:100F200070BD2DE9F0471E4690460D460446C1F3BC
:100F30000747DDF8209012E0701C10D02EB1FFF7AB
:100F4000BDFAA0EB0900B04209D9002044F8300FE7
:100F500020216173A07320730320BDE8F08720680F
:100F6000012F0AD0806925EA00000004000C06D099
:100F700000214145E0D00020EFE74069F3E701217F
:100F8000F7E700002DE9F0479A4691460D460446E2
:100F900000264FF02008C1F307472AE02068406987
:100FA000C043400512D42068016841F4007101601B
:100FB00021686FF48060486104202064266384F80F
:100FC0003D8084F83C600120BDE8F087B9F1FF3F27
:100FD0000FD0B9F1000F05D0FFF770FAA0EB0A01AE
:100FE000494506D944F8306F84F80D8026730320F4
:100FF000EAE72068012F07D0D0F8180025EA0000A2
:101000000004000CE0D0C9E74069F7E770B5164668
:101010000D4604461AE02046FFF7FEFE08B1012007
:1010200070BD681C12D025B1FFF748FA801BA8429A
:101030000CD954F8400F40F0200044F8100900206B
:101040002060202161732073032070BD20684069F7
:10105000C0430006DFD4002070BD00000C4810B56E
:101060000A4901601021416000218160C160016175
:1010700041618161C161016241628162C162FFF7C8
:1010800065F8002800D0FEE710BD000000640040B5
:10109000100000202DE9F041264886B0816941F01A
:1010A00010018161816901F010010491816941F0B1
:1010B00020018161816901F020010491816941F081
:1010C00004018161816901F004010491816941F0A9
:1010D000080181618069184F00F008004FF4C04496
:1010E0000490002221463846FFF7E2F9DFF84C80F1
:1010F0004FF40046002231464046FFF7D9F90094EC
:10110000012402256946384603950194FFF7F2F859
:101110000020CDE90040029069460948FFF7EAF84F
:10112000CDE90064694640460395FFF7E3F806B051
:10113000BDE8F0810010024000100140000C0140A9
:10114000000801400B4810B5094901600A49416097
:1011500000214FF480428160C0E903124161816146
:10116000C1610162FFF7B0F9002800D0FEE710BDB1
:101170000054004054000020801A0600FEE770472B
:101180000907090E002806DA00F00F0000F1E02040
:1011900080F8141D704700F1E02080F800147047BB
:1011A0007047704710B5FFF7EDFABDE81040FFF744
:1011B0002EBE30B58FB001210804CDE90010002407
:1011C000029402250491CDE907504FF4E0100990F4
:1011D0006846FFF779FC00B1FEE70F20CDE90A056C
:1011E0004FF48060CDE90C4002210AA80E94FFF76D
:1011F00075FB00B1FEE7FFF71BFC4FF47A71B0FB03
:10120000F1F0FFF7F0FD0420FFF7E0FD00221146AA
:10121000501EFFF731FB0FB030BD00000D480168D4
:1012200041F00101016041680B4A114041600168D1
:101230000A4A11400160016821F48021016041687F
:1012400021F4FE0141604FF41F0181600449C00395
:1012500008607047001002400000FFF8FFFFF6FE34
:1012600008ED00E0FEE702E008C8121F08C1002AEE
:10127000FAD170477047002001E001C1121F002A17
:10128000FBD170471CB5FFF785FAFFF792FFFFF718
:1012900001FFFFF7E3FEFFF755FF0948FFF714F9D9
:1012A00012208DF804006420FFF712F864200090EB
:1012B000012301AAD0210248FFF7A6F9FEE70000AA
:1012C00054000020000000000000000001020304A0
:1012D000060708090000000001020304FC120008D0
:1012E0000000002010000000661200080C13000827
:1012F00010000020980400007612000800A24A04A2
:0C130000010000001000000000000000D0
:04000005080000ED02
:00000001FF
